{
  "_format": "hh-sol-artifact-1",
  "contractName": "Certificate",
  "sourceName": "contracts/Certificate.sol",
  "abi": [
    {
      "inputs": [
        {
          "internalType": "address",
          "name": "initialOwner",
          "type": "address"
        }
      ],
      "stateMutability": "nonpayable",
      "type": "constructor"
    },
    {
      "inputs": [
        {
          "internalType": "address",
          "name": "owner",
          "type": "address"
        }
      ],
      "name": "OwnableInvalidOwner",
      "type": "error"
    },
    {
      "inputs": [
        {
          "internalType": "address",
          "name": "account",
          "type": "address"
        }
      ],
      "name": "OwnableUnauthorizedAccount",
      "type": "error"
    },
    {
      "anonymous": false,
      "inputs": [
        {
          "indexed": true,
          "internalType": "bytes32",
          "name": "certificateHash",
          "type": "bytes32"
        },
        {
          "indexed": true,
          "internalType": "address",
          "name": "institution",
          "type": "address"
        },
        {
          "indexed": false,
          "internalType": "uint256",
          "name": "timestamp",
          "type": "uint256"
        }
      ],
      "name": "CertificateIssued",
      "type": "event"
    },
    {
      "anonymous": false,
      "inputs": [
        {
          "indexed": true,
          "internalType": "bytes32",
          "name": "certificateHash",
          "type": "bytes32"
        },
        {
          "indexed": true,
          "internalType": "address",
          "name": "institution",
          "type": "address"
        },
        {
          "indexed": false,
          "internalType": "uint256",
          "name": "timestamp",
          "type": "uint256"
        }
      ],
      "name": "CertificateRevoked",
      "type": "event"
    },
    {
      "anonymous": false,
      "inputs": [
        {
          "indexed": true,
          "internalType": "address",
          "name": "institution",
          "type": "address"
        }
      ],
      "name": "InstitutionAdded",
      "type": "event"
    },
    {
      "anonymous": false,
      "inputs": [
        {
          "indexed": true,
          "internalType": "address",
          "name": "institution",
          "type": "address"
        }
      ],
      "name": "InstitutionRemoved",
      "type": "event"
    },
    {
      "anonymous": false,
      "inputs": [
        {
          "indexed": true,
          "internalType": "address",
          "name": "previousOwner",
          "type": "address"
        },
        {
          "indexed": true,
          "internalType": "address",
          "name": "newOwner",
          "type": "address"
        }
      ],
      "name": "OwnershipTransferred",
      "type": "event"
    },
    {
      "inputs": [
        {
          "internalType": "address",
          "name": "institutionAddress",
          "type": "address"
        }
      ],
      "name": "addInstitution",
      "outputs": [],
      "stateMutability": "nonpayable",
      "type": "function"
    },
    {
      "inputs": [
        {
          "internalType": "bytes32",
          "name": "certificateHash",
          "type": "bytes32"
        }
      ],
      "name": "getCertificateStatus",
      "outputs": [
        {
          "internalType": "enum Certificate.Status",
          "name": "",
          "type": "uint8"
        },
        {
          "internalType": "address",
          "name": "",
          "type": "address"
        },
        {
          "internalType": "uint256",
          "name": "",
          "type": "uint256"
        }
      ],
      "stateMutability": "view",
      "type": "function"
    },
    {
      "inputs": [
        {
          "internalType": "uint256",
          "name": "index",
          "type": "uint256"
        }
      ],
      "name": "getInstitutionAtIndex",
      "outputs": [
        {
          "internalType": "address",
          "name": "",
          "type": "address"
        }
      ],
      "stateMutability": "view",
      "type": "function"
    },
    {
      "inputs": [],
      "name": "getInstitutionCount",
      "outputs": [
        {
          "internalType": "uint256",
          "name": "",
          "type": "uint256"
        }
      ],
      "stateMutability": "view",
      "type": "function"
    },
    {
      "inputs": [
        {
          "internalType": "address",
          "name": "institutionAddress",
          "type": "address"
        }
      ],
      "name": "isInstitution",
      "outputs": [
        {
          "internalType": "bool",
          "name": "",
          "type": "bool"
        }
      ],
      "stateMutability": "view",
      "type": "function"
    },
    {
      "inputs": [
        {
          "internalType": "bytes32",
          "name": "certificateHash",
          "type": "bytes32"
        }
      ],
      "name": "issueCertificate",
      "outputs": [],
      "stateMutability": "nonpayable",
      "type": "function"
    },
    {
      "inputs": [],
      "name": "owner",
      "outputs": [
        {
          "internalType": "address",
          "name": "",
          "type": "address"
        }
      ],
      "stateMutability": "view",
      "type": "function"
    },
    {
      "inputs": [
        {
          "internalType": "address",
          "name": "institutionAddress",
          "type": "address"
        }
      ],
      "name": "removeInstitution",
      "outputs": [],
      "stateMutability": "nonpayable",
      "type": "function"
    },
    {
      "inputs": [],
      "name": "renounceOwnership",
      "outputs": [],
      "stateMutability": "nonpayable",
      "type": "function"
    },
    {
      "inputs": [
        {
          "internalType": "bytes32",
          "name": "certificateHash",
          "type": "bytes32"
        }
      ],
      "name": "revokeCertificate",
      "outputs": [],
      "stateMutability": "nonpayable",
      "type": "function"
    },
    {
      "inputs": [
        {
          "internalType": "address",
          "name": "newOwner",
          "type": "address"
        }
      ],
      "name": "transferOwnership",
      "outputs": [],
      "stateMutability": "nonpayable",
      "type": "function"
    }
  ],
  "bytecode": "0x608060405234801561001057600080fd5b50604051610ac0380380610ac083398101604081905261002f916100be565b806001600160a01b03811661005e57604051631e4fbdf760e01b81526000600482015260240160405180910390fd5b6100678161006e565b50506100ee565b600080546001600160a01b038381166001600160a01b0319831681178455604051919092169283917f8be0079c531659141344cd1fd0a4f28419497f9722a3daafe3b4186f6b6457e09190a35050565b6000602082840312156100d057600080fd5b81516001600160a01b03811681146100e757600080fd5b9392505050565b6109c3806100fd6000396000f3fe608060405234801561001057600080fd5b50600436106100a95760003560e01c80638da5cb5b116100715780638da5cb5b14610134578063a1f8182414610145578063af5b229114610158578063c6cbc52a1461016b578063cab621d91461017e578063f2fde38b146101c857600080fd5b80630331df07146100ae578063579b6a4a146100d6578063715018a6146100ec5780638747d5ed146100f65780638a23e29414610109575b600080fd5b6100c16100bc366004610862565b6101db565b60405190151581526020015b60405180910390f35b6100de6101ee565b6040519081526020016100cd565b6100f46101ff565b005b6100f4610104366004610862565b610213565b61011c61011736600461088b565b6102ae565b6040516001600160a01b0390911681526020016100cd565b6000546001600160a01b031661011c565b6100f461015336600461088b565b6102bb565b6100f4610166366004610862565b610416565b6100f461017936600461088b565b6104f4565b6101b961018c36600461088b565b6000908152600160208190526040909120805491015460ff8216926101009092046001600160a01b031691565b6040516100cd939291906108ba565b6100f46101d6366004610862565b6105d6565b60006101e8600283610614565b92915050565b60006101fa6002610639565b905090565b610207610643565b6102116000610670565b565b61021b610643565b6102266002826106c0565b6102775760405162461bcd60e51b815260206004820152601a60248201527f496e737469747574696f6e20646f6573206e6f7420657869737400000000000060448201526064015b60405180910390fd5b6040516001600160a01b038216907f1b0b878d06167e60e076b932df41de2b519d804c80445961e705ffbc98091f8790600090a250565b60006101e86002836106d5565b6102c6600233610614565b6102e25760405162461bcd60e51b815260040161026e906108f9565b60008181526001602052604081205460ff166002811115610305576103056108a4565b146103525760405162461bcd60e51b815260206004820152601a60248201527f436572746966696361746520616c726561647920657869737473000000000000604482015260640161026e565b6040805160608101825260018082523360208084019190915242838501526000858152908290529290922081518154929391929091839160ff1916908360028111156103a0576103a06108a4565b0217905550602082015181546001600160a01b0390911661010002610100600160a81b031990911617815560409182015160019091015551339082907f36b518fed88ed88d56e6197f8ca72f326d86ff0612dc364838d93c4d5daab5a99061040b9042815260200190565b60405180910390a350565b61041e610643565b6001600160a01b0381166104665760405162461bcd60e51b815260206004820152600f60248201526e496e76616c6964206164647265737360881b604482015260640161026e565b6104716002826106e1565b6104bd5760405162461bcd60e51b815260206004820152601a60248201527f496e737469747574696f6e20616c726561647920657869737473000000000000604482015260640161026e565b6040516001600160a01b038216907f0bfb62b1fbb00013554ed3ff21ca179a519aee08ccf015aed3482362436b6b3590600090a250565b6104ff600233610614565b61051b5760405162461bcd60e51b815260040161026e906108f9565b600081815260016020819052604090912090815460ff166002811115610543576105436108a4565b146105905760405162461bcd60e51b815260206004820152601f60248201527f4365727469666963617465206e6f7420696e2069737375656420737461746500604482015260640161026e565b805460ff19166002178155604051428152339083907f85fe6dd2dfc4757558754564c7ff020182ec3c918257c2ff3a217a63791ec24f9060200160405180910390a35050565b6105de610643565b6001600160a01b03811661060857604051631e4fbdf760e01b81526000600482015260240161026e565b61061181610670565b50565b6001600160a01b038116600090815260018301602052604081205415155b9392505050565b60006101e8825490565b6000546001600160a01b031633146102115760405163118cdaa760e01b815233600482015260240161026e565b600080546001600160a01b038381166001600160a01b0319831681178455604051919092169283917f8be0079c531659141344cd1fd0a4f28419497f9722a3daafe3b4186f6b6457e09190a35050565b6000610632836001600160a01b0384166106f6565b600061063283836107e9565b6000610632836001600160a01b038416610813565b600081815260018301602052604081205480156107df57600061071a600183610940565b855490915060009061072e90600190610940565b905080821461079357600086600001828154811061074e5761074e610961565b906000526020600020015490508087600001848154811061077157610771610961565b6000918252602080832090910192909255918252600188019052604090208390555b85548690806107a4576107a4610977565b6001900381819060005260206000200160009055905585600101600086815260200190815260200160002060009055600193505050506101e8565b60009150506101e8565b600082600001828154811061080057610800610961565b9060005260206000200154905092915050565b600081815260018301602052604081205461085a575081546001818101845560008481526020808220909301849055845484825282860190935260409020919091556101e8565b5060006101e8565b60006020828403121561087457600080fd5b81356001600160a01b038116811461063257600080fd5b60006020828403121561089d57600080fd5b5035919050565b634e487b7160e01b600052602160045260246000fd5b60608101600385106108dc57634e487b7160e01b600052602160045260246000fd5b9381526001600160a01b0392909216602083015260409091015290565b60208082526027908201527f43616c6c6572206973206e6f7420616e20617574686f72697a656420696e737460408201526634ba3aba34b7b760c91b606082015260800190565b818103818111156101e857634e487b7160e01b600052601160045260246000fd5b634e487b7160e01b600052603260045260246000fd5b634e487b7160e01b600052603160045260246000fdfea264697066735822122076513da9f8515bc5efa35643930f9fc3d17eb6b697c9efd6f2bdd1e90ad9242064736f6c63430008140033",
  "linkReferences": {},
  "deployedLinkReferences": {}
}