{
  "_format": "hh-sol-artifact-1",
  "contractName": "BaselineRevocation",
  "sourceName": "contracts/BaselineRevocation.sol",
  "abi": [
    {
      "inputs": [],
      "stateMutability": "nonpayable",
      "type": "constructor"
    },
    {
      "anonymous": false,
      "inputs": [
        {
          "indexed": true,
          "internalType": "bytes32",
          "name": "certificateId",
          "type": "bytes32"
        }
      ],
      "name": "CertificateRevoked",
      "type": "event"
    },
    {
      "inputs": [
        {
          "internalType": "bytes32",
          "name": "certificateId",
          "type": "bytes32"
        }
      ],
      "name": "isRevoked",
      "outputs": [
        {
          "internalType": "bool",
          "name": "",
          "type": "bool"
        }
      ],
      "stateMutability": "view",
      "type": "function"
    },
    {
      "inputs": [],
      "name": "owner",
      "outputs": [
        {
          "internalType": "address",
          "name": "",
          "type": "address"
        }
      ],
      "stateMutability": "view",
      "type": "function"
    },
    {
      "inputs": [
        {
          "internalType": "bytes32",
          "name": "certificateId",
          "type": "bytes32"
        }
      ],
      "name": "revoke",
      "outputs": [],
      "stateMutability": "nonpayable",
      "type": "function"
    },
    {
      "inputs": [
        {
          "internalType": "bytes32",
          "name": "",
          "type": "bytes32"
        }
      ],
      "name": "revoked",
      "outputs": [
        {
          "internalType": "bool",
          "name": "",
          "type": "bool"
        }
      ],
      "stateMutability": "view",
      "type": "function"
    }
  ],
  "bytecode": "0x608060405234801561001057600080fd5b50600180546001600160a01b03191633179055610235806100326000396000f3fe608060405234801561001057600080fd5b506004361061004c5760003560e01c8063328a93e8146100515780634294857f146100895780638da5cb5b146100ac578063b75c7dc6146100d7575b600080fd5b61007461005f3660046101e6565b60006020819052908152604090205460ff1681565b60405190151581526020015b60405180910390f35b6100746100973660046101e6565b60009081526020819052604090205460ff1690565b6001546100bf906001600160a01b031681565b6040516001600160a01b039091168152602001610080565b6100ea6100e53660046101e6565b6100ec565b005b6001546001600160a01b031633146101445760405162461bcd60e51b815260206004820152601660248201527527b7363c9037bbb732b91031b0b7103932bb37b5b29760511b60448201526064015b60405180910390fd5b60008181526020819052604090205460ff16156101a35760405162461bcd60e51b815260206004820152601c60248201527f436572746966696361746520616c7265616479207265766f6b65642e00000000604482015260640161013b565b600081815260208190526040808220805460ff191660011790555182917f44d80a438cb4fa3b5aedbe551ce3d9382e37f446917b783e1dee70a03b4180e391a250565b6000602082840312156101f857600080fd5b503591905056fea26469706673582212201f2caa10c3ae59f2dd06f0080d0035407d7e620251bb53f0e5446c912f79e2fc64736f6c63430008140033",
  "linkReferences": {},
  "deployedLinkReferences": {}
}