{
  "_format": "hh-sol-artifact-1",
  "contractName": "CertificateOnChain",
  "sourceName": "contracts/CertificateOnChain.sol",
  "abi": [
    {
      "inputs": [
        {
          "internalType": "address",
          "name": "initialOwner",
          "type": "address"
        }
      ],
      "stateMutability": "nonpayable",
      "type": "constructor"
    },
    {
      "inputs": [
        {
          "internalType": "address",
          "name": "owner",
          "type": "address"
        }
      ],
      "name": "OwnableInvalidOwner",
      "type": "error"
    },
    {
      "inputs": [
        {
          "internalType": "address",
          "name": "account",
          "type": "address"
        }
      ],
      "name": "OwnableUnauthorizedAccount",
      "type": "error"
    },
    {
      "anonymous": false,
      "inputs": [
        {
          "indexed": true,
          "internalType": "uint256",
          "name": "certificateId",
          "type": "uint256"
        },
        {
          "indexed": true,
          "internalType": "address",
          "name": "institution",
          "type": "address"
        },
        {
          "indexed": false,
          "internalType": "string",
          "name": "studentName",
          "type": "string"
        }
      ],
      "name": "CertificateIssued",
      "type": "event"
    },
    {
      "anonymous": false,
      "inputs": [
        {
          "indexed": true,
          "internalType": "address",
          "name": "previousOwner",
          "type": "address"
        },
        {
          "indexed": true,
          "internalType": "address",
          "name": "newOwner",
          "type": "address"
        }
      ],
      "name": "OwnershipTransferred",
      "type": "event"
    },
    {
      "inputs": [
        {
          "internalType": "uint256",
          "name": "",
          "type": "uint256"
        }
      ],
      "name": "certificates",
      "outputs": [
        {
          "internalType": "string",
          "name": "studentName",
          "type": "string"
        },
        {
          "internalType": "string",
          "name": "degreeType",
          "type": "string"
        },
        {
          "internalType": "string",
          "name": "institutionName",
          "type": "string"
        },
        {
          "internalType": "uint256",
          "name": "issueTimestamp",
          "type": "uint256"
        },
        {
          "internalType": "address",
          "name": "issuingInstitution",
          "type": "address"
        },
        {
          "internalType": "bool",
          "name": "isIssued",
          "type": "bool"
        }
      ],
      "stateMutability": "view",
      "type": "function"
    },
    {
      "inputs": [],
      "name": "getCertificateCount",
      "outputs": [
        {
          "internalType": "uint256",
          "name": "",
          "type": "uint256"
        }
      ],
      "stateMutability": "view",
      "type": "function"
    },
    {
      "inputs": [
        {
          "internalType": "uint256",
          "name": "certificateId",
          "type": "uint256"
        }
      ],
      "name": "getCertificateData",
      "outputs": [
        {
          "components": [
            {
              "internalType": "string",
              "name": "studentName",
              "type": "string"
            },
            {
              "internalType": "string",
              "name": "degreeType",
              "type": "string"
            },
            {
              "internalType": "string",
              "name": "institutionName",
              "type": "string"
            },
            {
              "internalType": "uint256",
              "name": "issueTimestamp",
              "type": "uint256"
            },
            {
              "internalType": "address",
              "name": "issuingInstitution",
              "type": "address"
            },
            {
              "internalType": "bool",
              "name": "isIssued",
              "type": "bool"
            }
          ],
          "internalType": "struct CertificateOnChain.CertificateData",
          "name": "",
          "type": "tuple"
        }
      ],
      "stateMutability": "view",
      "type": "function"
    },
    {
      "inputs": [
        {
          "internalType": "string",
          "name": "studentName",
          "type": "string"
        },
        {
          "internalType": "string",
          "name": "degreeType",
          "type": "string"
        },
        {
          "internalType": "string",
          "name": "institutionName",
          "type": "string"
        }
      ],
      "name": "issueCertificate",
      "outputs": [],
      "stateMutability": "nonpayable",
      "type": "function"
    },
    {
      "inputs": [],
      "name": "owner",
      "outputs": [
        {
          "internalType": "address",
          "name": "",
          "type": "address"
        }
      ],
      "stateMutability": "view",
      "type": "function"
    },
    {
      "inputs": [],
      "name": "renounceOwnership",
      "outputs": [],
      "stateMutability": "nonpayable",
      "type": "function"
    },
    {
      "inputs": [
        {
          "internalType": "address",
          "name": "newOwner",
          "type": "address"
        }
      ],
      "name": "transferOwnership",
      "outputs": [],
      "stateMutability": "nonpayable",
      "type": "function"
    }
  ],
  "bytecode": "0x608060405234801561001057600080fd5b50604051610da2380380610da283398101604081905261002f916100be565b806001600160a01b03811661005e57604051631e4fbdf760e01b81526000600482015260240160405180910390fd5b6100678161006e565b50506100ee565b600080546001600160a01b038381166001600160a01b0319831681178455604051919092169283917f8be0079c531659141344cd1fd0a4f28419497f9722a3daafe3b4186f6b6457e09190a35050565b6000602082840312156100d057600080fd5b81516001600160a01b03811681146100e757600080fd5b9392505050565b610ca5806100fd6000396000f3fe608060405234801561001057600080fd5b506004361061007d5760003560e01c80638809f7271161005b5780638809f727146100da5780638da5cb5b146100eb578063beec1caa14610106578063f2fde38b1461011957600080fd5b806331494bbb14610082578063663b3e22146100ab578063715018a6146100d0575b600080fd5b610095610090366004610869565b61012c565b6040516100a291906108c8565b60405180910390f35b6100be6100b9366004610869565b6103de565b6040516100a296959493929190610955565b6100d86105d1565b005b6001546040519081526020016100a2565b6000546040516001600160a01b0390911681526020016100a2565b6100d8610114366004610a01565b6105e5565b6100d8610127366004610a9b565b6107ae565b6101706040518060c001604052806060815260200160608152602001606081526020016000815260200160006001600160a01b031681526020016000151581525090565b60015482106101c65760405162461bcd60e51b815260206004820152601c60248201527f4365727469666963617465204944206f7574206f6620626f756e64730000000060448201526064015b60405180910390fd5b600182815481106101d9576101d9610acb565b90600052602060002090600502016040518060c001604052908160008201805461020290610ae1565b80601f016020809104026020016040519081016040528092919081815260200182805461022e90610ae1565b801561027b5780601f106102505761010080835404028352916020019161027b565b820191906000526020600020905b81548152906001019060200180831161025e57829003601f168201915b5050505050815260200160018201805461029490610ae1565b80601f01602080910402602001604051908101604052809291908181526020018280546102c090610ae1565b801561030d5780601f106102e25761010080835404028352916020019161030d565b820191906000526020600020905b8154815290600101906020018083116102f057829003601f168201915b5050505050815260200160028201805461032690610ae1565b80601f016020809104026020016040519081016040528092919081815260200182805461035290610ae1565b801561039f5780601f106103745761010080835404028352916020019161039f565b820191906000526020600020905b81548152906001019060200180831161038257829003601f168201915b5050509183525050600382015460208201526004909101546001600160a01b0381166040830152600160a01b900460ff16151560609091015292915050565b600181815481106103ee57600080fd5b906000526020600020906005020160009150905080600001805461041190610ae1565b80601f016020809104026020016040519081016040528092919081815260200182805461043d90610ae1565b801561048a5780601f1061045f5761010080835404028352916020019161048a565b820191906000526020600020905b81548152906001019060200180831161046d57829003601f168201915b50505050509080600101805461049f90610ae1565b80601f01602080910402602001604051908101604052809291908181526020018280546104cb90610ae1565b80156105185780601f106104ed57610100808354040283529160200191610518565b820191906000526020600020905b8154815290600101906020018083116104fb57829003601f168201915b50505050509080600201805461052d90610ae1565b80601f016020809104026020016040519081016040528092919081815260200182805461055990610ae1565b80156105a65780601f1061057b576101008083540402835291602001916105a6565b820191906000526020600020905b81548152906001019060200180831161058957829003601f168201915b5050505060038301546004909301549192916001600160a01b0381169150600160a01b900460ff1686565b6105d96107ec565b6105e36000610819565b565b6105ed6107ec565b600180546040805160e06020601f8b01819004028201810190925260c0810189815292939290918291908b908b9081908501838280828437600092019190915250505090825250604080516020601f8a0181900481028201810190925288815291810191908990899081908401838280828437600092019190915250505090825250604080516020601f88018190048102820181019092528681529181019190879087908190840183828082843760009201829052509385525050426020808501919091523360408501526001606090940184905285549384018655948252509290922081519192600502019081906106e69082610b80565b50602082015160018201906106fb9082610b80565b50604082015160028201906107109082610b80565b506060820151600382015560808201516004909101805460a0909301511515600160a01b026001600160a81b03199093166001600160a01b03909216919091179190911790556000818152600260205260409081902082905551339082907fb7ff6cbe8f0282bf405f9ce3210be62c5620d39139a49186436e3f0fcc6a315a9061079d908b908b90610c40565b60405180910390a350505050505050565b6107b66107ec565b6001600160a01b0381166107e057604051631e4fbdf760e01b8152600060048201526024016101bd565b6107e981610819565b50565b6000546001600160a01b031633146105e35760405163118cdaa760e01b81523360048201526024016101bd565b600080546001600160a01b038381166001600160a01b0319831681178455604051919092169283917f8be0079c531659141344cd1fd0a4f28419497f9722a3daafe3b4186f6b6457e09190a35050565b60006020828403121561087b57600080fd5b5035919050565b6000815180845260005b818110156108a85760208185018101518683018201520161088c565b506000602082860101526020601f19601f83011685010191505092915050565b602081526000825160c060208401526108e460e0840182610882565b90506020840151601f19808584030160408601526109028383610882565b92506040860151915080858403016060860152506109208282610882565b9150506060840151608084015260018060a01b0360808501511660a084015260a0840151151560c08401528091505092915050565b60c08152600061096860c0830189610882565b828103602084015261097a8189610882565b9050828103604084015261098e8188610882565b606084019690965250506001600160a01b03929092166080830152151560a0909101529392505050565b60008083601f8401126109ca57600080fd5b50813567ffffffffffffffff8111156109e257600080fd5b6020830191508360208285010111156109fa57600080fd5b9250929050565b60008060008060008060608789031215610a1a57600080fd5b863567ffffffffffffffff80821115610a3257600080fd5b610a3e8a838b016109b8565b90985096506020890135915080821115610a5757600080fd5b610a638a838b016109b8565b90965094506040890135915080821115610a7c57600080fd5b50610a8989828a016109b8565b979a9699509497509295939492505050565b600060208284031215610aad57600080fd5b81356001600160a01b0381168114610ac457600080fd5b9392505050565b634e487b7160e01b600052603260045260246000fd5b600181811c90821680610af557607f821691505b602082108103610b1557634e487b7160e01b600052602260045260246000fd5b50919050565b634e487b7160e01b600052604160045260246000fd5b601f821115610b7b57600081815260208120601f850160051c81016020861015610b585750805b601f850160051c820191505b81811015610b7757828155600101610b64565b5050505b505050565b815167ffffffffffffffff811115610b9a57610b9a610b1b565b610bae81610ba88454610ae1565b84610b31565b602080601f831160018114610be35760008415610bcb5750858301515b600019600386901b1c1916600185901b178555610b77565b600085815260208120601f198616915b82811015610c1257888601518255948401946001909101908401610bf3565b5085821015610c305787850151600019600388901b60f8161c191681555b5050505050600190811b01905550565b60208152816020820152818360408301376000818301604090810191909152601f909201601f1916010191905056fea26469706673582212201d9239b5fd1f50696fd40471e64a5e986fcb8b639f610055a563cc53c5c667b864736f6c63430008140033",
  "linkReferences": {},
  "deployedLinkReferences": {}
}